{
  "_format": "hh-sol-artifact-1",
  "contractName": "Raffle",
  "sourceName": "contracts/Raffle.sol",
  "abi": [
    {
      "inputs": [
        {
          "internalType": "address",
          "name": "vrfCoordinatorV2",
          "type": "address"
        },
        {
          "internalType": "uint256",
          "name": "entranceFee",
          "type": "uint256"
        },
        {
          "internalType": "bytes32",
          "name": "gasLane",
          "type": "bytes32"
        },
        {
          "internalType": "uint256",
          "name": "subscriptionId",
          "type": "uint256"
        },
        {
          "internalType": "uint32",
          "name": "callbackGasLimit",
          "type": "uint32"
        },
        {
          "internalType": "uint256",
          "name": "interval",
          "type": "uint256"
        }
      ],
      "stateMutability": "nonpayable",
      "type": "constructor"
    },
    {
      "inputs": [
        {
          "internalType": "address",
          "name": "have",
          "type": "address"
        },
        {
          "internalType": "address",
          "name": "want",
          "type": "address"
        }
      ],
      "name": "OnlyCoordinatorCanFulfill",
      "type": "error"
    },
    {
      "inputs": [
        {
          "internalType": "address",
          "name": "have",
          "type": "address"
        },
        {
          "internalType": "address",
          "name": "owner",
          "type": "address"
        },
        {
          "internalType": "address",
          "name": "coordinator",
          "type": "address"
        }
      ],
      "name": "OnlyOwnerOrCoordinator",
      "type": "error"
    },
    {
      "inputs": [],
      "name": "Raffle__NotEnoughEthEntered",
      "type": "error"
    },
    {
      "inputs": [],
      "name": "Raffle__NotOpen",
      "type": "error"
    },
    {
      "inputs": [],
      "name": "Raffle__TransferFailed",
      "type": "error"
    },
    {
      "inputs": [
        {
          "internalType": "uint256",
          "name": "currentBalance",
          "type": "uint256"
        },
        {
          "internalType": "uint256",
          "name": "numPlayers",
          "type": "uint256"
        },
        {
          "internalType": "uint256",
          "name": "raffleState",
          "type": "uint256"
        }
      ],
      "name": "Raffle__UpkeepNotNeeded",
      "type": "error"
    },
    {
      "inputs": [],
      "name": "ZeroAddress",
      "type": "error"
    },
    {
      "anonymous": false,
      "inputs": [
        {
          "indexed": false,
          "internalType": "address",
          "name": "vrfCoordinator",
          "type": "address"
        }
      ],
      "name": "CoordinatorSet",
      "type": "event"
    },
    {
      "anonymous": false,
      "inputs": [
        {
          "indexed": true,
          "internalType": "address",
          "name": "from",
          "type": "address"
        },
        {
          "indexed": true,
          "internalType": "address",
          "name": "to",
          "type": "address"
        }
      ],
      "name": "OwnershipTransferRequested",
      "type": "event"
    },
    {
      "anonymous": false,
      "inputs": [
        {
          "indexed": true,
          "internalType": "address",
          "name": "from",
          "type": "address"
        },
        {
          "indexed": true,
          "internalType": "address",
          "name": "to",
          "type": "address"
        }
      ],
      "name": "OwnershipTransferred",
      "type": "event"
    },
    {
      "anonymous": false,
      "inputs": [
        {
          "indexed": true,
          "internalType": "address",
          "name": "player",
          "type": "address"
        }
      ],
      "name": "RaffleEnter",
      "type": "event"
    },
    {
      "anonymous": false,
      "inputs": [
        {
          "indexed": false,
          "internalType": "uint256",
          "name": "requestId",
          "type": "uint256"
        }
      ],
      "name": "RequestedRaffleWinner",
      "type": "event"
    },
    {
      "anonymous": false,
      "inputs": [
        {
          "indexed": true,
          "internalType": "address",
          "name": "winner",
          "type": "address"
        }
      ],
      "name": "WinnerPicked",
      "type": "event"
    },
    {
      "inputs": [],
      "name": "acceptOwnership",
      "outputs": [],
      "stateMutability": "nonpayable",
      "type": "function"
    },
    {
      "inputs": [
        {
          "internalType": "bytes",
          "name": "",
          "type": "bytes"
        }
      ],
      "name": "checkUpkeep",
      "outputs": [
        {
          "internalType": "bool",
          "name": "upkeepNeeded",
          "type": "bool"
        },
        {
          "internalType": "bytes",
          "name": "",
          "type": "bytes"
        }
      ],
      "stateMutability": "view",
      "type": "function"
    },
    {
      "inputs": [],
      "name": "enterRaffle",
      "outputs": [],
      "stateMutability": "payable",
      "type": "function"
    },
    {
      "inputs": [],
      "name": "getEntranceFee",
      "outputs": [
        {
          "internalType": "uint256",
          "name": "",
          "type": "uint256"
        }
      ],
      "stateMutability": "view",
      "type": "function"
    },
    {
      "inputs": [],
      "name": "getInterval",
      "outputs": [
        {
          "internalType": "uint256",
          "name": "",
          "type": "uint256"
        }
      ],
      "stateMutability": "view",
      "type": "function"
    },
    {
      "inputs": [],
      "name": "getLastTimeStamp",
      "outputs": [
        {
          "internalType": "uint256",
          "name": "",
          "type": "uint256"
        }
      ],
      "stateMutability": "view",
      "type": "function"
    },
    {
      "inputs": [],
      "name": "getLatestTimeStamp",
      "outputs": [
        {
          "internalType": "uint256",
          "name": "",
          "type": "uint256"
        }
      ],
      "stateMutability": "view",
      "type": "function"
    },
    {
      "inputs": [],
      "name": "getNumWords",
      "outputs": [
        {
          "internalType": "uint256",
          "name": "",
          "type": "uint256"
        }
      ],
      "stateMutability": "pure",
      "type": "function"
    },
    {
      "inputs": [],
      "name": "getNumberOfPlayers",
      "outputs": [
        {
          "internalType": "uint256",
          "name": "",
          "type": "uint256"
        }
      ],
      "stateMutability": "view",
      "type": "function"
    },
    {
      "inputs": [
        {
          "internalType": "uint256",
          "name": "index",
          "type": "uint256"
        }
      ],
      "name": "getPlayers",
      "outputs": [
        {
          "internalType": "address",
          "name": "",
          "type": "address"
        }
      ],
      "stateMutability": "view",
      "type": "function"
    },
    {
      "inputs": [],
      "name": "getRaffleState",
      "outputs": [
        {
          "internalType": "enum Raffle.RaffleState",
          "name": "",
          "type": "uint8"
        }
      ],
      "stateMutability": "view",
      "type": "function"
    },
    {
      "inputs": [],
      "name": "getRecentWinner",
      "outputs": [
        {
          "internalType": "address",
          "name": "",
          "type": "address"
        }
      ],
      "stateMutability": "view",
      "type": "function"
    },
    {
      "inputs": [],
      "name": "getRequestConfirmations",
      "outputs": [
        {
          "internalType": "uint16",
          "name": "",
          "type": "uint16"
        }
      ],
      "stateMutability": "pure",
      "type": "function"
    },
    {
      "inputs": [],
      "name": "owner",
      "outputs": [
        {
          "internalType": "address",
          "name": "",
          "type": "address"
        }
      ],
      "stateMutability": "view",
      "type": "function"
    },
    {
      "inputs": [
        {
          "internalType": "bytes",
          "name": "",
          "type": "bytes"
        }
      ],
      "name": "performUpkeep",
      "outputs": [],
      "stateMutability": "nonpayable",
      "type": "function"
    },
    {
      "inputs": [
        {
          "internalType": "uint256",
          "name": "requestId",
          "type": "uint256"
        },
        {
          "internalType": "uint256[]",
          "name": "randomWords",
          "type": "uint256[]"
        }
      ],
      "name": "rawFulfillRandomWords",
      "outputs": [],
      "stateMutability": "nonpayable",
      "type": "function"
    },
    {
      "inputs": [],
      "name": "s_vrfCoordinator",
      "outputs": [
        {
          "internalType": "contract IVRFCoordinatorV2Plus",
          "name": "",
          "type": "address"
        }
      ],
      "stateMutability": "view",
      "type": "function"
    },
    {
      "inputs": [
        {
          "internalType": "address",
          "name": "_vrfCoordinator",
          "type": "address"
        }
      ],
      "name": "setCoordinator",
      "outputs": [],
      "stateMutability": "nonpayable",
      "type": "function"
    },
    {
      "inputs": [
        {
          "internalType": "address",
          "name": "to",
          "type": "address"
        }
      ],
      "name": "transferOwnership",
      "outputs": [],
      "stateMutability": "nonpayable",
      "type": "function"
    }
  ],
  "bytecode": "0x61014060405234801561001157600080fd5b506040516125ac3803806125ac833981810160405281019061003391906104b3565b85338060008073ffffffffffffffffffffffffffffffffffffffff168273ffffffffffffffffffffffffffffffffffffffff16036100a6576040517f08c379a000000000000000000000000000000000000000000000000000000000815260040161009d9061059d565b60405180910390fd5b816000806101000a81548173ffffffffffffffffffffffffffffffffffffffff021916908373ffffffffffffffffffffffffffffffffffffffff160217905550600073ffffffffffffffffffffffffffffffffffffffff168173ffffffffffffffffffffffffffffffffffffffff161461012a576101298161027c60201b60201c565b5b505050600073ffffffffffffffffffffffffffffffffffffffff168173ffffffffffffffffffffffffffffffffffffffff1603610193576040517fd92e233d00000000000000000000000000000000000000000000000000000000815260040160405180910390fd5b80600260006101000a81548173ffffffffffffffffffffffffffffffffffffffff021916908373ffffffffffffffffffffffffffffffffffffffff1602179055505084608081815250508573ffffffffffffffffffffffffffffffffffffffff1660a08173ffffffffffffffffffffffffffffffffffffffff16815250508360c081815250508260e081815250508163ffffffff166101008163ffffffff16815250506000600660006101000a81548160ff0219169083600181111561025c5761025b6105bd565b5b021790555042600781905550806101208181525050505050505050610658565b3373ffffffffffffffffffffffffffffffffffffffff168173ffffffffffffffffffffffffffffffffffffffff16036102ea576040517f08c379a00000000000000000000000000000000000000000000000000000000081526004016102e190610638565b60405180910390fd5b80600160006101000a81548173ffffffffffffffffffffffffffffffffffffffff021916908373ffffffffffffffffffffffffffffffffffffffff1602179055508073ffffffffffffffffffffffffffffffffffffffff1660008054906101000a900473ffffffffffffffffffffffffffffffffffffffff1673ffffffffffffffffffffffffffffffffffffffff167fed8889f560326eb138920d842192f0eb3dd22b4f139c87a2c57538e05bae127860405160405180910390a350565b600080fd5b600073ffffffffffffffffffffffffffffffffffffffff82169050919050565b60006103d8826103ad565b9050919050565b6103e8816103cd565b81146103f357600080fd5b50565b600081519050610405816103df565b92915050565b6000819050919050565b61041e8161040b565b811461042957600080fd5b50565b60008151905061043b81610415565b92915050565b6000819050919050565b61045481610441565b811461045f57600080fd5b50565b6000815190506104718161044b565b92915050565b600063ffffffff82169050919050565b61049081610477565b811461049b57600080fd5b50565b6000815190506104ad81610487565b92915050565b60008060008060008060c087890312156104d0576104cf6103a8565b5b60006104de89828a016103f6565b96505060206104ef89828a0161042c565b955050604061050089828a01610462565b945050606061051189828a0161042c565b935050608061052289828a0161049e565b92505060a061053389828a0161042c565b9150509295509295509295565b600082825260208201905092915050565b7f43616e6e6f7420736574206f776e657220746f207a65726f0000000000000000600082015250565b6000610587601883610540565b915061059282610551565b602082019050919050565b600060208201905081810360008301526105b68161057a565b9050919050565b7f4e487b7100000000000000000000000000000000000000000000000000000000600052602160045260246000fd5b7f43616e6e6f74207472616e7366657220746f2073656c66000000000000000000600082015250565b6000610622601783610540565b915061062d826105ec565b602082019050919050565b6000602082019050818103600083015261065181610615565b9050919050565b60805160a05160c05160e0516101005161012051611efa6106b2600039600081816109c70152610dd401526000610808015260006107d7015260006107b10152600050506000818161043601526105390152611efa6000f3fe6080604052600436106101145760003560e01c80635f1b0fd8116100a057806391ad27b41161006457806391ad27b41461035d5780639eccacf614610388578063c1c244e8146103b3578063f2fde38b146103de578063fd6673f51461040757610114565b80635f1b0fd8146102895780636e04ff0d146102b457806379ba5097146102f25780638da5cb5b146103095780638ea981171461033457610114565b8063320229eb116100e7578063320229eb146101a25780634585e33b146101cd578063460e2049146101f6578063473f1ddc1461023357806353a2c19a1461025e57610114565b806309bc33a714610119578063115cbaf5146101445780631fe543e31461016f5780632cfcc53914610198575b600080fd5b34801561012557600080fd5b5061012e610432565b60405161013b9190611390565b60405180910390f35b34801561015057600080fd5b5061015961045a565b6040516101669190611422565b60405180910390f35b34801561017b57600080fd5b50610196600480360381019061019191906114e2565b610471565b005b6101a0610537565b005b3480156101ae57600080fd5b506101b76106a6565b6040516101c49190611390565b60405180910390f35b3480156101d957600080fd5b506101f460048036038101906101ef9190611598565b6106b0565b005b34801561020257600080fd5b5061021d600480360381019061021891906115e5565b6108fa565b60405161022a9190611653565b60405180910390f35b34801561023f57600080fd5b50610248610942565b6040516102559190611653565b60405180910390f35b34801561026a57600080fd5b5061027361096c565b6040516102809190611390565b60405180910390f35b34801561029557600080fd5b5061029e61097b565b6040516102ab919061168b565b60405180910390f35b3480156102c057600080fd5b506102db60048036038101906102d691906117e7565b610984565b6040516102e99291906118ca565b60405180910390f35b3480156102fe57600080fd5b50610307610a31565b005b34801561031557600080fd5b5061031e610bc6565b60405161032b9190611653565b60405180910390f35b34801561034057600080fd5b5061035b60048036038101906103569190611926565b610bef565b005b34801561036957600080fd5b50610372610dd0565b60405161037f9190611390565b60405180910390f35b34801561039457600080fd5b5061039d610df8565b6040516103aa91906119b2565b60405180910390f35b3480156103bf57600080fd5b506103c8610e1e565b6040516103d59190611390565b60405180910390f35b3480156103ea57600080fd5b5061040560048036038101906104009190611926565b610e28565b005b34801561041357600080fd5b5061041c610e3c565b6040516104299190611390565b60405180910390f35b60007f0000000000000000000000000000000000000000000000000000000000000000905090565b6000600660009054906101000a900460ff16905090565b600260009054906101000a900473ffffffffffffffffffffffffffffffffffffffff1673ffffffffffffffffffffffffffffffffffffffff163373ffffffffffffffffffffffffffffffffffffffff16146105275733600260009054906101000a900473ffffffffffffffffffffffffffffffffffffffff166040517f1cf993f400000000000000000000000000000000000000000000000000000000815260040161051e9291906119cd565b60405180910390fd5b610532838383610e49565b505050565b7f0000000000000000000000000000000000000000000000000000000000000000341015610591576040517f066d781f00000000000000000000000000000000000000000000000000000000815260040160405180910390fd5b600060018111156105a5576105a46113ab565b5b600660009054906101000a900460ff1660018111156105c7576105c66113ab565b5b146105fe576040517f1425571c00000000000000000000000000000000000000000000000000000000815260040160405180910390fd5b6003339080600181540180825580915050600190039060005260206000200160009091909190916101000a81548173ffffffffffffffffffffffffffffffffffffffff021916908373ffffffffffffffffffffffffffffffffffffffff1602179055503373ffffffffffffffffffffffffffffffffffffffff167f0805e1d667bddb8a95f0f09880cf94f403fb596ce79928d9f29b74203ba284d460405160405180910390a2565b6000600754905090565b60006106ca60405180602001604052806000815250610984565b509050806107395747600380549050600660009054906101000a900460ff1660018111156106fb576106fa6113ab565b5b6040517f584327aa000000000000000000000000000000000000000000000000000000008152600401610730939291906119f6565b60405180910390fd5b6001600660006101000a81548160ff0219169083600181111561075f5761075e6113ab565b5b02179055506000600260009054906101000a900473ffffffffffffffffffffffffffffffffffffffff1673ffffffffffffffffffffffffffffffffffffffff16639b1c385e6040518060c001604052807f000000000000000000000000000000000000000000000000000000000000000081526020017f00000000000000000000000000000000000000000000000000000000000000008152602001600361ffff1681526020017f000000000000000000000000000000000000000000000000000000000000000063ffffffff168152602001600163ffffffff16815260200161085960405180602001604052806001151581525061107c565b8152506040518263ffffffff1660e01b81526004016108789190611b56565b6020604051808303816000875af1158015610897573d6000803e3d6000fd5b505050506040513d601f19601f820116820180604052508101906108bb9190611b8d565b90507fcd6e45c8998311cab7e9d4385596cac867e20a0587194b954fa3a731c93ce78b816040516108ec9190611390565b60405180910390a150505050565b6000600382815481106109105761090f611bba565b5b9060005260206000200160009054906101000a900473ffffffffffffffffffffffffffffffffffffffff169050919050565b6000600460009054906101000a900473ffffffffffffffffffffffffffffffffffffffff16905090565b6000600163ffffffff16905090565b60006003905090565b600060606000600660009054906101000a900460ff1660018111156109ac576109ab6113ab565b5b600060018111156109c0576109bf6113ab565b5b14905060007f0000000000000000000000000000000000000000000000000000000000000000600754426109f49190611c18565b11905060008060038054905011905060008047119050838015610a145750825b8015610a1d5750815b8015610a265750805b955050505050915091565b600160009054906101000a900473ffffffffffffffffffffffffffffffffffffffff1673ffffffffffffffffffffffffffffffffffffffff163373ffffffffffffffffffffffffffffffffffffffff1614610ac1576040517f08c379a0000000000000000000000000000000000000000000000000000000008152600401610ab890611ca9565b60405180910390fd5b60008060009054906101000a900473ffffffffffffffffffffffffffffffffffffffff169050336000806101000a81548173ffffffffffffffffffffffffffffffffffffffff021916908373ffffffffffffffffffffffffffffffffffffffff1602179055506000600160006101000a81548173ffffffffffffffffffffffffffffffffffffffff021916908373ffffffffffffffffffffffffffffffffffffffff1602179055503373ffffffffffffffffffffffffffffffffffffffff168173ffffffffffffffffffffffffffffffffffffffff167f8be0079c531659141344cd1fd0a4f28419497f9722a3daafe3b4186f6b6457e060405160405180910390a350565b60008060009054906101000a900473ffffffffffffffffffffffffffffffffffffffff16905090565b610bf7610bc6565b73ffffffffffffffffffffffffffffffffffffffff163373ffffffffffffffffffffffffffffffffffffffff1614158015610c805750600260009054906101000a900473ffffffffffffffffffffffffffffffffffffffff1673ffffffffffffffffffffffffffffffffffffffff163373ffffffffffffffffffffffffffffffffffffffff1614155b15610cef5733610c8e610bc6565b600260009054906101000a900473ffffffffffffffffffffffffffffffffffffffff166040517f061db9c1000000000000000000000000000000000000000000000000000000008152600401610ce693929190611cc9565b60405180910390fd5b600073ffffffffffffffffffffffffffffffffffffffff168173ffffffffffffffffffffffffffffffffffffffff1603610d55576040517fd92e233d00000000000000000000000000000000000000000000000000000000815260040160405180910390fd5b80600260006101000a81548173ffffffffffffffffffffffffffffffffffffffff021916908373ffffffffffffffffffffffffffffffffffffffff1602179055507fd1a6a14209a385a964d036e404cb5cfb71f4000cdb03c9366292430787261be681604051610dc59190611653565b60405180910390a150565b60007f0000000000000000000000000000000000000000000000000000000000000000905090565b600260009054906101000a900473ffffffffffffffffffffffffffffffffffffffff1681565b6000600754905090565b610e30611114565b610e39816111a4565b50565b6000600380549050905090565b600060038054905083836000818110610e6557610e64611bba565b5b90506020020135610e769190611d2f565b9050600060038281548110610e8e57610e8d611bba565b5b9060005260206000200160009054906101000a900473ffffffffffffffffffffffffffffffffffffffff16905080600460006101000a81548173ffffffffffffffffffffffffffffffffffffffff021916908373ffffffffffffffffffffffffffffffffffffffff1602179055506000600660006101000a81548160ff02191690836001811115610f2257610f216113ab565b5b0217905550600067ffffffffffffffff811115610f4257610f416116bc565b5b604051908082528060200260200182016040528015610f705781602001602082028036833780820191505090505b5060039080519060200190610f869291906112d0565b504260078190555060008173ffffffffffffffffffffffffffffffffffffffff1647604051610fb490611d91565b60006040518083038185875af1925050503d8060008114610ff1576040519150601f19603f3d011682016040523d82523d6000602084013e610ff6565b606091505b5050905080611031576040517fa1d04b3900000000000000000000000000000000000000000000000000000000815260040160405180910390fd5b8173ffffffffffffffffffffffffffffffffffffffff167f5b690ec4a06fe979403046eaeea5b3ce38524683c3001f662c8b5a829632f7df60405160405180910390a2505050505050565b60607f92fd13387c7fe7befbc38d303d6468778fb9731bc4583f17d92989c6fcfdeaaa826040516024016110b09190611dd1565b604051602081830303815290604052907bffffffffffffffffffffffffffffffffffffffffffffffffffffffff19166020820180517bffffffffffffffffffffffffffffffffffffffffffffffffffffffff83818316178352505050509050919050565b60008054906101000a900473ffffffffffffffffffffffffffffffffffffffff1673ffffffffffffffffffffffffffffffffffffffff163373ffffffffffffffffffffffffffffffffffffffff16146111a2576040517f08c379a000000000000000000000000000000000000000000000000000000000815260040161119990611e38565b60405180910390fd5b565b3373ffffffffffffffffffffffffffffffffffffffff168173ffffffffffffffffffffffffffffffffffffffff1603611212576040517f08c379a000000000000000000000000000000000000000000000000000000000815260040161120990611ea4565b60405180910390fd5b80600160006101000a81548173ffffffffffffffffffffffffffffffffffffffff021916908373ffffffffffffffffffffffffffffffffffffffff1602179055508073ffffffffffffffffffffffffffffffffffffffff1660008054906101000a900473ffffffffffffffffffffffffffffffffffffffff1673ffffffffffffffffffffffffffffffffffffffff167fed8889f560326eb138920d842192f0eb3dd22b4f139c87a2c57538e05bae127860405160405180910390a350565b828054828255906000526020600020908101928215611349579160200282015b828111156113485782518260006101000a81548173ffffffffffffffffffffffffffffffffffffffff021916908373ffffffffffffffffffffffffffffffffffffffff160217905550916020019190600101906112f0565b5b509050611356919061135a565b5090565b5b8082111561137357600081600090555060010161135b565b5090565b6000819050919050565b61138a81611377565b82525050565b60006020820190506113a56000830184611381565b92915050565b7f4e487b7100000000000000000000000000000000000000000000000000000000600052602160045260246000fd5b600281106113eb576113ea6113ab565b5b50565b60008190506113fc826113da565b919050565b600061140c826113ee565b9050919050565b61141c81611401565b82525050565b60006020820190506114376000830184611413565b92915050565b6000604051905090565b600080fd5b600080fd5b61145a81611377565b811461146557600080fd5b50565b60008135905061147781611451565b92915050565b600080fd5b600080fd5b600080fd5b60008083601f8401126114a2576114a161147d565b5b8235905067ffffffffffffffff8111156114bf576114be611482565b5b6020830191508360208202830111156114db576114da611487565b5b9250929050565b6000806000604084860312156114fb576114fa611447565b5b600061150986828701611468565b935050602084013567ffffffffffffffff81111561152a5761152961144c565b5b6115368682870161148c565b92509250509250925092565b60008083601f8401126115585761155761147d565b5b8235905067ffffffffffffffff81111561157557611574611482565b5b60208301915083600182028301111561159157611590611487565b5b9250929050565b600080602083850312156115af576115ae611447565b5b600083013567ffffffffffffffff8111156115cd576115cc61144c565b5b6115d985828601611542565b92509250509250929050565b6000602082840312156115fb576115fa611447565b5b600061160984828501611468565b91505092915050565b600073ffffffffffffffffffffffffffffffffffffffff82169050919050565b600061163d82611612565b9050919050565b61164d81611632565b82525050565b60006020820190506116686000830184611644565b92915050565b600061ffff82169050919050565b6116858161166e565b82525050565b60006020820190506116a0600083018461167c565b92915050565b600080fd5b6000601f19601f8301169050919050565b7f4e487b7100000000000000000000000000000000000000000000000000000000600052604160045260246000fd5b6116f4826116ab565b810181811067ffffffffffffffff82111715611713576117126116bc565b5b80604052505050565b600061172661143d565b905061173282826116eb565b919050565b600067ffffffffffffffff821115611752576117516116bc565b5b61175b826116ab565b9050602081019050919050565b82818337600083830152505050565b600061178a61178584611737565b61171c565b9050828152602081018484840111156117a6576117a56116a6565b5b6117b1848285611768565b509392505050565b600082601f8301126117ce576117cd61147d565b5b81356117de848260208601611777565b91505092915050565b6000602082840312156117fd576117fc611447565b5b600082013567ffffffffffffffff81111561181b5761181a61144c565b5b611827848285016117b9565b91505092915050565b60008115159050919050565b61184581611830565b82525050565b600081519050919050565b600082825260208201905092915050565b60005b8381101561188557808201518184015260208101905061186a565b60008484015250505050565b600061189c8261184b565b6118a68185611856565b93506118b6818560208601611867565b6118bf816116ab565b840191505092915050565b60006040820190506118df600083018561183c565b81810360208301526118f18184611891565b90509392505050565b61190381611632565b811461190e57600080fd5b50565b600081359050611920816118fa565b92915050565b60006020828403121561193c5761193b611447565b5b600061194a84828501611911565b91505092915050565b6000819050919050565b600061197861197361196e84611612565b611953565b611612565b9050919050565b600061198a8261195d565b9050919050565b600061199c8261197f565b9050919050565b6119ac81611991565b82525050565b60006020820190506119c760008301846119a3565b92915050565b60006040820190506119e26000830185611644565b6119ef6020830184611644565b9392505050565b6000606082019050611a0b6000830186611381565b611a186020830185611381565b611a256040830184611381565b949350505050565b6000819050919050565b611a4081611a2d565b82525050565b611a4f81611377565b82525050565b611a5e8161166e565b82525050565b600063ffffffff82169050919050565b611a7d81611a64565b82525050565b600082825260208201905092915050565b6000611a9f8261184b565b611aa98185611a83565b9350611ab9818560208601611867565b611ac2816116ab565b840191505092915050565b600060c083016000830151611ae56000860182611a37565b506020830151611af86020860182611a46565b506040830151611b0b6040860182611a55565b506060830151611b1e6060860182611a74565b506080830151611b316080860182611a74565b5060a083015184820360a0860152611b498282611a94565b9150508091505092915050565b60006020820190508181036000830152611b708184611acd565b905092915050565b600081519050611b8781611451565b92915050565b600060208284031215611ba357611ba2611447565b5b6000611bb184828501611b78565b91505092915050565b7f4e487b7100000000000000000000000000000000000000000000000000000000600052603260045260246000fd5b7f4e487b7100000000000000000000000000000000000000000000000000000000600052601160045260246000fd5b6000611c2382611377565b9150611c2e83611377565b9250828203905081811115611c4657611c45611be9565b5b92915050565b600082825260208201905092915050565b7f4d7573742062652070726f706f736564206f776e657200000000000000000000600082015250565b6000611c93601683611c4c565b9150611c9e82611c5d565b602082019050919050565b60006020820190508181036000830152611cc281611c86565b9050919050565b6000606082019050611cde6000830186611644565b611ceb6020830185611644565b611cf86040830184611644565b949350505050565b7f4e487b7100000000000000000000000000000000000000000000000000000000600052601260045260246000fd5b6000611d3a82611377565b9150611d4583611377565b925082611d5557611d54611d00565b5b828206905092915050565b600081905092915050565b50565b6000611d7b600083611d60565b9150611d8682611d6b565b600082019050919050565b6000611d9c82611d6e565b9150819050919050565b611daf81611830565b82525050565b602082016000820151611dcb6000850182611da6565b50505050565b6000602082019050611de66000830184611db5565b92915050565b7f4f6e6c792063616c6c61626c65206279206f776e657200000000000000000000600082015250565b6000611e22601683611c4c565b9150611e2d82611dec565b602082019050919050565b60006020820190508181036000830152611e5181611e15565b9050919050565b7f43616e6e6f74207472616e7366657220746f2073656c66000000000000000000600082015250565b6000611e8e601783611c4c565b9150611e9982611e58565b602082019050919050565b60006020820190508181036000830152611ebd81611e81565b905091905056fea26469706673582212209c84261c05191b10606c458b50cc29cd65389dd877cca1029cb422bca15206f264736f6c634300081b0033",
  "linkReferences": {},
  "deployedLinkReferences": {}
}